:020000040800F2
:1000000000200020B90500080506000805060008C4
:1000100000000000000000000000000000000000E0
:1000200000000000000000000000000005060008BD
:10003000000000000000000005060008050600089A
:100040000506000805060008050600080506000864
:100050000506000805060008050600080506000854
:100060000506000805060008050600080506000844
:100070000506000805060008050600080903000833
:100080000506000805060008000000000506000837
:100090000506000805060008050600080506000814
:1000A0000506000805060008050600080506000804
:1000B000050600080000000005060008000000001A
:1000C0005FF808F180B588B000AF78600023FB616D
:1000D0000023BB6100237B6100233B610023FB60A5
:1000E000654B5B680C221340FB61FB69042B07D056
:1000F000082B09D0002B31D17B68604A1A6031E0AF
:100100007B685E4A1A602DE05B4B5A68F0239B03C4
:100110001340BB61584B5A6880235B0213407B61DC
:10012000BB699B0C0233BB617B69002B05D1BB69AA
:10013000534A5A437B681A6014E04F4BDB6A0F2224
:10014000134001333B614D48396901F00FF9031C3D
:100150001A1CBB695A437B681A6003E07B68474AF4
:100160001A60C046444B5B68F0221340FB61FB6998
:100170001B09FB61434AFB69D3181B78DBB2FB60A8
:100180007B681A68FB68DA407B685A603A4B5A68A9
:10019000E023DB001340FB61FB691B0AFB61394A6A
:1001A000FB69D3181B78DBB2FB607B685A68FB687D
:1001B000DA407B689A60304B1A6B80235B001340F7
:1001C00003D17B68304ADA6010E02B4B5A688023F9
:1001D000DB01134005D17B689B685A087B68DA60B5
:1001E00004E07B689B689A087B68DA60224B1B6B93
:1001F0004022134003D17B68244A1A6103E07B68E4
:10020000802212021A611C4B1B6B1022134003D177
:100210007B681A4A5A6103E07B681A687B685A61F6
:10022000154B1B6B0322134004D17B689A687B68D3
:100230009A611EE0104B1B6B03221340012B04D16B
:100240007B681A687B689A6113E00B4B1B6B032277
:100250001340022B04D17B68802212029A6108E0CD
:10026000054B1B6B03221340032B02D17B68034A0F
:100270009A61BD4608B080BD0010024000127A00AD
:1002800000093D0000000020809FD5001280000082
:1002900080B582B000AF78600A1CFB1C1A70FB1C92
:1002A0001B78002B06D0084B074A51697A680A432D
:1002B0005A6106E0044B044A52697968C9430A400E
:1002C0005A61BD4602B080BD0010024080B582B0C8
:1002D00000AF78600A1CFB1C1A70FB1C1B78002BFB
:1002E00006D0084B074AD1697A680A43DA6106E00A
:1002F000044B044AD2697968C9430A40DA61BD46B1
:1003000002B080BD0010024080B500AF8023DB0545
:10031000181C042100F0B0FD031E012B22D1802304
:10032000DB05181C042100F0E7FD8023DB05181C09
:100330000421002200F078FD0B4B00225A8080231C
:10034000DA05094B101C191C00F0B6FB8023DB05F5
:10035000181C00F0E7FC031C9AB2044B1A80044BF3
:1003600001221A70BD4680BD24000020120000202A
:100370001000002090B585B000AF80239B02181CB0
:100380000121FFF785FF01200121FFF79FFF7E4B31
:1003900003221A607C4B00229A717B4B02221A7155
:1003A000794B0122DA71784B00225A719023DA05D9
:1003B000754B101C191C00F0DDF99023DB05181C8F
:1003C0000121022200F068FA9023DB05181C0021AD
:1003D000022200F061FA8023DB05181C002100F0E6
:1003E0004BFB6A4B04221A80684B00221A81674B30
:1003F00002225A80654B0022DA80644B01229A80E7
:100400008023DA05614B101C191C00F033FC604B93
:10041000802252001A825E4B70221A805C4B0122AD
:100420005A805B4B00229A818023DA05584B101CBE
:10043000191C00F041FB8023DB05181C002100F093
:10044000FFFA544B00221A81524B00225A80514B22
:10045000514A5A604F4B10221A808023DA054D4BC7
:10046000101C191C00F068FA8023DB05181C0A21F7
:1004700000F0F4FB8023DB05181C0421012200F0AE
:10048000D3FC464B0F221A70444B01229A70434B07
:1004900000225A70414B181C00F014FF404B181CEE
:1004A000FFF710FE0F23FB1800221A708023DB05D4
:1004B000181C002100F0E0FA8023DB05181C042141
:1004C000012200F0B1FC324B01225A808023DA0570
:1004D0002F4B101C191C00F0EFFA8023DB05181CB1
:1004E0000A2100F0BBFB8023DB052E4A181C111CDF
:1004F00000F09AFA2C4B00221A708023DB05181C9E
:10050000012100F0B9FAC046274B1B78DBB2002B63
:10051000FAD0254B1B78DBB2012B34D1234B1B883F
:100520009BB2181C01F01EFA031C181C8321C9057C
:1005300001F0E6F8031C1C1C194B9B68181C01F009
:1005400011FA031C201C191C00F0A2FF031CBB6045
:10055000BB68802212065340181C01F06FFD031C7B
:100560000C1C181C211C124A124B01F043FA031CEC
:100570000C1C181C211C01F0B5FD031C7B600F2313
:10058000FB1801221A7091E738000020400000207B
:100590002400002018000020FFFF000014000020AD
:1005A0004C000020FDFF0000100000201200002081
:1005B0003632C0BA0F75C5C00C488546002103E02D
:1005C0000B4B5B58435004310A480B4B42189A427C
:1005D000F6D30A4A02E0002313600432084B9A4221
:1005E000F9D300F011F8FFF7C5FEFEE70020002068
:1005F0004023000800000020100000201000002010
:1006000068000020FEE7000080B500AF1B4B1B4ACE
:10061000126801210A431A60184B184A5268184997
:100620000A405A60154B154A126816490A401A606A
:10063000124B124A126814490A401A600F4B0F4AB3
:10064000526812490A405A600C4B0C4AD26A0F2178
:100650008A43DA62094B094A126B0D490A401A6350
:10066000064B064A526B01218A435A63034B002210
:100670009A6000F00FF8BD4680BDC04600100240F1
:100680000CB8FFF8FFFFF6FEFFFFFBFFFFFFC0FF08
:10069000ACFEFFFF80B582B000AF00237B6000237B
:1006A0003B60314B304A1268802149020A431A608C
:1006B0002D4B1A6880239B0213403B607B680133FB
:1006C0007B603B68002B04D17A68A023DB019A424F
:1006D000EED1254B1A6880239B02134002D00123E0
:1006E0003B6001E000233B603B68012B38D11F4B8E
:1006F00011221A601C4B1C4A52685A601A4B1A4A43
:1007000052685A60184B184A526819490A405A6090
:10071000154B154A5268882149030A435A60124B07
:10072000114A1268802149040A431A60C0460E4BE0
:100730001A6880239B041340F9D00B4B0A4A526875
:1007400003218A435A60084B074A526802210A4330
:100750005A60C046044B5B680C221340082BF9D149
:10076000BD4602B080BDC0460010024000200240DD
:10077000FFFFC0FF80B586B000AF7860396000230E
:100780007B6100233B610023FB6000237B617CE0F5
:100790007B6901229A40131C3B613B681B683A69E4
:1007A0001340FB60FA683B699A426BD13B681B7946
:1007B000012B03D03B681B79022B34D17B689B68EB
:1007C0007A695200111C03228A40D2431A407B6886
:1007D0009A607B689A683B685B79191C7B695B004F
:1007E00099400B1C1A437B689A607B689B889BB27C
:1007F0007A6992B2111C01228A4092B2D24392B21B
:1008000013409AB27B689A807B689B889AB23B6857
:100810009B79191C7B699BB299400B1C9BB21343BB
:100820009AB27B689A807B681B687A695200111CB7
:1008300003228A40D2431A407B681A607B681A6898
:100840003B681B79191C7B695B0099400B1C1A43A0
:100850007B681A607B68DB687A6992B25200032178
:1008600091400A1CD2431A407B68DA607B68DA68E0
:100870003B68DB79191C7B695B0099400B1C1A43B0
:100880007B68DA607B6901337B617B690F2B00D861
:100890007EE7BD4606B080BD80B584B000AF78600D
:1008A000081C111CBB1C021C1A807B1C0A1C1A7021
:1008B0000023FB600023BB607B1C1B78BA1C1288E2
:1008C00007210A4092009340FB60BB1C1B88DB0899
:1008D0009BB2181CBB1C1B88DB089BB21A1C7B68D4
:1008E00008329200D358BA1C128807210A4092009D
:1008F000111C0F228A40D2431A40111C7B68021C33
:1009000008329200D150BB1C1B88DB089BB21A1C1A
:100910007B6808329200D258FB681343BB60BB1C53
:100920001B88DB089BB21A1C7B6808329200B968EE
:10093000D150BD4604B080BD80B584B000AF7860B2
:1009400039600E23FB1800221A800E23FB187A68E8
:1009500012881A807B682D4A934208D07A688023D7
:10096000DB059A4203D07B68294A934210D10E23BB
:10097000FB180E22BA18128870218A431A803B682D
:1009800059880E23FB180E22BA1812880A431A80BF
:100990007B68204A934210D00E23FB180E22BA180F
:1009A00012881D490A401A803B6819890E23FB18DA
:1009B0000E22BA1812880A431A807B680E22BA18CF
:1009C00012881A803B685A687B68DA623B681A882A
:1009D0007B681A857B680D4A93420BD07B680F4A6F
:1009E000934207D07B680E4A934203D07B680D4A3E
:1009F000934204D13B689B7A9AB27B681A867B68E3
:100A000001229A82BD4604B080BDC046002C014040
:100A10000004004000100040FFFCFFFF00400140C8
:100A2000004401400048014080B582B000AF7860CA
:100A300039607B683A685A62BD4602B080BDC046E4
:100A400080B582B000AF78600A1CBB1C1A807B683E
:100A50001B889BB2082293439AB27B681A807B68FA
:100A60001B889AB2BB1C1B8813439AB27B681A80FE
:100A7000BD4602B080BDC04680B582B000AF786090
:100A80000A1CFB1C1A70FB1C1B78002B08D07B680F
:100A90001B889BB2012213439AB27B681A8007E03D
:100AA0007B681B889BB2012293439AB27B681A80B1
:100AB000BD4602B080BDC04680B584B000AF78604E
:100AC00039600A23FB1800221A800E23FB1800222B
:100AD0001A800C23FB1800221A807B681B8C9BB2A7
:100AE000012293439AB27B681A840E23FB187A681A
:100AF000128C1A800C23FB187A6892881A800A23B9
:100B0000FB187A68128B1A800A23FB180A22BA187B
:100B1000128870218A431A800A23FB180A22BA1805
:100B2000128803218A431A803B6819880A23FB181C
:100B30000A22BA1812880A431A800E23FB180E22C2
:100B4000BA18128802218A431A803B6899890E23B9
:100B5000FB180E22BA1812880A431A803B6859887B
:100B60000E23FB180E22BA1812880A431A807B68DB
:100B7000344A93420BD07B68334A934207D07B6858
:100B8000324A934203D07B68314A934243D10E23C9
:100B9000FB180E22BA18128808218A431A803B6873
:100BA000D9890E23FB180E22BA1812880A431A801C
:100BB0000E23FB180E22BA18128804218A431A80C9
:100BC0003B6899880E23FB180E22BA1812880A4334
:100BD0001A800C23FB180C22BA1812881D490A40EF
:100BE0001A800C23FB180C22BA1812881A490A40E2
:100BF0001A803B68198A0C23FB180C22BA18128839
:100C00000A431A803B68598A0C23FB180C22BA1835
:100C100012880A431A807B680C22BA1812889A80BC
:100C20007B680A22BA1812881A833B689A687B6824
:100C30005A637B680E22BA1812881A84BD4604B023
:100C400080BDC046002C01400040014000440140EE
:100C500000480140FFFEFFFFFFFDFFFF80B582B0AF
:100C600000AF786039607B683A685A63BD4602B06D
:100C700080BDC04680B582B000AF786039603B6807
:100C80001B88002B10D13B6859883B689A883B68C9
:100C90001B89786800F040F93B68DB887A68101C93
:100CA000191C00F049F839E03B681B88042B10D16F
:100CB0003B6859883B689A883B681B89786800F0D4
:100CC00091F93B68DB887A68101C191C00F050F819
:100CD00024E03B681B88082B10D13B6859883B688F
:100CE0009A883B681B89786800F0F6F93B68DB88D6
:100CF0007A68101C191C00F05BF80FE03B685988FB
:100D00003B689A883B681B89786800F05BFA3B680F
:100D1000DB887A68101C191C00F066F8BD4602B02A
:100D200080BDC04680B582B000AF78607B689B6BA9
:100D3000181CBD4602B080BD80B582B000AF78609F
:100D40000A1CBB1C1A807B681B8B9BB20C22934332
:100D50009AB27B681A837B681B8B9AB2BB1C1B8878
:100D600013439AB27B681A83BD4602B080BDC04669
:100D700080B582B000AF78600A1CBB1C1A807B680B
:100D80001B8B9BB2094A13409AB27B681A837B681B
:100D90001B8B9AB2BB1C1B881B029BB213439AB2DB
:100DA0007B681A83BD4602B080BDC046FFF3FFFFDB
:100DB00080B582B000AF78600A1CBB1C1A807B68CB
:100DC0009B8B9BB20C2293439AB27B689A837B687D
:100DD0009B8B9AB2BB1C1B8813439AB27B689A8385
:100DE000BD4602B080BDC04680B582B000AF78601D
:100DF0000A1CBB1C1A807B689B8B9BB2094A134060
:100E00009AB27B689A837B689B8B9AB2BB1C1B88C7
:100E10001B029BB213439AB27B689A83BD4602B011
:100E200080BDC046FFF3FFFF80B582B000AF7860A1
:100E3000081C111CBB1C021C1A807B1C0A1C1A708B
:100E40007B1C1B78002B09D07B689B899AB2BB1C4A
:100E50001B8813439AB27B689A810AE07B689B895E
:100E60009BB2BA1C1288D24392B213409AB27B68EA
:100E70009A81BD4602B080BD80B584B000AF786075
:100E80000A1CBB1C1A800F23FB1800221A700C23AB
:100E9000FB1800221A800A23FB1800221A807B68A4
:100EA0001B8A9AB20C23FB18B91C09880A401A80C5
:100EB0007B689B899AB20A23FB18B91C09880A40EF
:100EC0001A800C23FB181B88002B09D00A23FB185F
:100ED0001B88002B04D00F23FB1801221A7003E09B
:100EE0000F23FB1800221A700F23FB181B78181C05
:100EF000BD4604B080BDC04680B582B000AF78600A
:100F00000A1CBB1C1A80BB1C1B88DB439AB27B6883
:100F10001A82BD4602B080BD90B587B000AFF860C0
:100F20000C1C101C191C0A23FB18221C1A800823F5
:100F3000FB18021C1A80BB1D0A1C1A801623FB1802
:100F400000221A801423FB1800221A80FB681B8CD5
:100F50009BB2012293439AB2FB681A841623FB18B2
:100F6000FA68128B1A801423FB18FA68128C1A8004
:100F70001623FB181622BA181288F3218A431A8006
:100F8000BB1D1B881B019AB20823FB181B88134347
:100F900099B21623FB181622BA1812880A431A802F
:100FA0001423FB181422BA1812880A218A431A80C3
:100FB0000A23FA181423FB1812881B8813439AB2C9
:100FC0001423FB1801210A431A80FB681622BA1861
:100FD00012881A83FB681422BA1812881A84BD4634
:100FE00007B090BD90B587B000AFF8600C1C101C26
:100FF000191C0A23FB18221C1A800823FB18021C48
:101000001A80BB1D0A1C1A801623FB1800221A80A6
:101010001423FB1800221A801223FB1800221A80C6
:10102000FB681B8C9BB2102293439AB2FB681A8414
:101030001623FB18FA68128B1A801423FB18FA681F
:10104000128C1A801223FB180A22BA181288120175
:101050001A801623FB181622BA1812881D490A4056
:101060001A80BB1D1B881B0399B21623FB1816227E
:10107000BA1812880A431A800823FB181B881B021F
:1010800099B21623FB181622BA1812880A431A803E
:101090001423FB181422BA181288A0218A431A803C
:1010A0001223FA181423FB1812881B8813439AB2D0
:1010B0001423FB1810210A431A80FB681622BA1861
:1010C00012881A83FB681422BA1812881A84BD4643
:1010D00007B090BDFF0C000090B587B000AFF8607E
:1010E0000C1C101C191C0A23FB18221C1A80082334
:1010F000FB18021C1A80BB1D0A1C1A801623FB1841
:1011000000221A801423FB1800221A801223FB18D5
:1011100000221A80FB681B8C9BB2284A13409AB2AB
:10112000FB681A841623FB18FA68928B1A80142322
:10113000FB18FA68128C1A801223FB180A22BA18BC
:10114000128812021A801623FB181622BA18128867
:10115000F3218A431A80BB1D1B881B019AB2082306
:10116000FB181B88134399B21623FB181622BA18D2
:1011700012880A431A801423FB181422BA18128802
:101180000F490A401A801223FA181423FB181288F8
:101190001B8813439AB21423FB18802149000A4389
:1011A0001A80FB681622BA1812889A83FB681422E8
:1011B000BA1812881A84BD4607B090BDFFFEFFFF23
:1011C000FFF5FFFF90B587B000AFF8600C1C101C56
:1011D000191C0A23FB18221C1A800823FB18021C66
:1011E0001A80BB1D0A1C1A801623FB1800221A80C5
:1011F0001423FB1800221A801223FB1800221A80E5
:10120000FB681B8C9BB22C4A13409AB2FB681A8471
:101210001623FB18FA68928B1A801423FB18FA68BD
:10122000128C1A801223FB180A22BA181288120391
:101230001A801623FB181622BA1812881F490A4072
:101240001A800823FB181B881B0299B21623FB186F
:101250001622BA1812880A431A80BB1D1B881B036A
:1012600099B21623FB181622BA1812880A431A805C
:101270001423FB181422BA18128811490A401A8044
:101280001223FA181423FB1812881B8813439AB2EE
:101290001423FB18802149010A431A80FB68162297
:1012A000BA1812889A83FB681422BA1812881A8412
:1012B000BD4607B090BDC046FFEFFFFFFF0C00002A
:1012C000FF5F000080B584B000AF78600023FB6052
:1012D0007B689B78002B39D0234A7B681B789B085E
:1012E000DBB2C0339B009B58FB607B681B781A1CE9
:1012F00003231340DB00FF229A40131CDA43FB68F0
:101300001340FB607B685B789B01FF221A407B687F
:101310001B78191C03230B40DB009A40131CFA684E
:101320001343FB6010497B681B789B08DBB2C0331A
:101330009B00FA685A500C4B7A681278111C1F22D5
:101340000A40012191400A1C1A600AE006497B68A4
:101350001B781A1C1F23134001229A40131C802261
:101360008B50BD4604B080BD00E100E00022430880
:101370008B4274D303098B425FD3030A8B4244D35D
:10138000030B8B4228D3030C8B420DD3FF2209029F
:1013900012BA030C8B4202D31212090265D0030B5E
:1013A0008B4219D300E0090AC30B8B4201D3CB0354
:1013B000C01A5241830B8B4201D38B03C01A524196
:1013C000430B8B4201D34B03C01A5241030B8B4298
:1013D00001D30B03C01A5241C30A8B4201D3CB0283
:1013E000C01A5241830A8B4201D38B02C01A524168
:1013F000430A8B4201D34B02C01A5241030A8B426B
:1014000001D30B02C01A5241CDD2C3098B4201D382
:10141000CB01C01A524183098B4201D38B01C01A00
:10142000524143098B4201D34B01C01A5241030977
:101430008B4201D30B01C01A5241C3088B4201D326
:10144000CB00C01A524183088B4201D38B00C01AD3
:10145000524143088B4201D34B00C01A5241411AFA
:1014600000D20146524110467047FFE701B5002007
:1014700000F00CF802BDC0460029F7D003B5FFF715
:1014800075FF0EBC4243891A1847C0467047C046D4
:10149000F0B556464D465F464446F0B4430245001B
:1014A000C70F83B08A465C0A2E0EB94641D0FF2E84
:1014B00026D080231B042343DC00002398469B4650
:1014C0007F3E53465B025D0A53465A00DB0F120E05
:1014D0009A4639D0FF2A33D080231B042B43DD00EA
:1014E00000237F3A5146B21A46467940081C0192C1
:1014F0001E430F2E00D976E07E4AB6009659B746B5
:10150000002C30D108239846063B9B46D9E7802320
:101510000021DB03FF245B02E4055B0AC9072343C8
:101520000B43181C03B03CBC90469946A246AB4600
:10153000F0BD002C28D104239846033B9B46C0E70E
:10154000002D1FD1022302E0002D11D10123B21A78
:1015500050464646784001921E430F2E27D86649D2
:10156000B60089598F460C239846093B9B46A8E74D
:10157000281C00F047FE7622431F52429D40121A5B
:101580000023AFE70323ADE7201C00F03BFE431F21
:101590009C4076235B421E1A002398469B4690E7A8
:1015A0000025D1469B465B464846022B6FD1012160
:1015B000FF2401400023AEE77E23019A5B429B1A81
:1015C0001B2B6DDD01214B46194000240023A2E7AF
:1015D0008023DB031C4249D18023DB0323435B02CE
:1015E0005B0A391C96E763016D01AB4237D389462C
:1015F0001A2001215B1B01241E1C49005B00002EE8
:1016000001DBAB4201D35B1B214301380028F3D13E
:10161000581E83410B431D1C019C7F34002CCBDDE5
:101620006B0704D00F232B40042B00D004352B0173
:1016300004D5019A314B8032141C1D40FE2C07DD6D
:101640004B460121FF241940002364E7251CAAE72B
:1016500001214A46AB015B0AE4B211405BE7019A03
:101660008946013A01921B200021C4E71D4207D0A0
:1016700023435B025B0A391C4CE700256302ABD5B0
:101680008023DB032B435B025B0A514642E7032BBB
:1016900025D0012BC0D101210024014000233AE7CD
:1016A000291CD9402B1C019A9E3293405D1EAB41F0
:1016B0000B435A0704D00F221A40042A00D00433E7
:1016C0005A0105D54B46012101241940002322E788
:1016D00001214A469B015B0A114000241BE780233D
:1016E00001214A46DB032B435B020A405B0A111CC3
:1016F00010E7C0464022000880220008FFFFFFF7E5
:10170000F0B55F4656464D464446F0B445024600A5
:10171000C40F83B00F1C6D0A360EA34645D0FF2EB2
:1017200025D080231B041D4300239A46ED007F3EF5
:1017300001937B025B0A98467800FB0F000E9946E6
:1017400040D0FF2838D0802342461B041343DB00DF
:10175000984600237F384A46019F30186240411C5A
:101760001F430F2F69D87D4EBF00F659B746002D95
:1017700045D108230193063B9A46DAE79346534640
:10178000022B2FD15B46012400251C40FF236D0254
:10179000DB056D0AE4071D432543281C03B03CBC50
:1017A00090469946A246AB46F0BD002D2CD10423AD
:1017B0000193033B9A46BCE743465A4253410322F6
:1017C000D31AC8E742460123002AC4D0404600F09D
:1017D00019FD4246431F9A4076235B42181A9046F1
:1017E0000023B8E7032B00D1ADE0012B00D08CE043
:1017F0005B4654461C40E4B200230025C7E70C2397
:101800000193093B9A4694E7281C00F0FBFC7626DE
:10181000431F9D4000237642361A01939A4688E77B
:1018200080250024ED03FF23B1E74546CB469A46C9
:10183000A5E7454693469A46A1E743462C041B0C70
:101840009C46230C444626041C1C360C2F0C744367
:10185000351C66467D4373437743EB18260C9E196F
:10186000B54203D980235B029C46674424043304B9
:10187000240C1B199D016C1EA5419B0E360C2B439D
:10188000BD19AD011D432B0104D5012368081D407E
:101890000543081C031C7F33002B2CDD690704D093
:1018A0000F212940042900D00435290103D52C4BF0
:1018B0001D40031C8033FE2B17DD0124FF23144041
:1018C000002564E78020C003054209D04346034257
:1018D00006D1454605436D026D0A4C46FF2356E787
:1018E00005436D026D0AFF2351E70124AD016D0A26
:1018F000DBB214404BE77E235B421B1A1B2B07DD38
:10190000012400231440002541E7081C5A46C1E782
:101910009E30291C8540D940681E85410D436B07C8
:1019200004D00F232B40042B00D004356B0104D5C9
:10193000012401231440002529E70124AD016D0A8B
:101940001440002323E78023DB031D4301245B466F
:101950006D0223401C1C6D0AFF2318E7C0220008FB
:10196000FFFFFFF710B5041E35D000F04BFC9E21A1
:10197000091A962909DC082830DD021C231C083AC4
:1019800093405B025B0AC8B220E099290CDD052276
:10199000231C121AD3401A1C031C1B339C40231C0B
:1019A0005C1EA34113431C1C052801DD431F9C4002
:1019B0000F4B2340620704D00F221440042C00D0A8
:1019C00004335A010ED49B015B0AC8B25B025B0A66
:1019D000C005184310BD00200023F7E763025B0A2F
:1019E000C8B2F3E79F21024A091A1340EBE7C04649
:1019F000FFFFFFFBF0B55F4656464D464446F0B448
:101A00000F0387B098464D003B0BCC0F061C924647
:101A100081469B466D0D01946BD0664B9D4235D03F
:101A200080275B467F031F43F3009946624BFF000C
:101A3000400F9C4607430023BB46002665440093A5
:101A4000424617035000D20F53463F0B400D9046BD
:101A500000D172E0574A904267D080235B031F4356
:101A60005346554A5B0FFF001F43944653460021DF
:101A7000DB0060444246624092462D1A0E430F2E10
:101A800000D9A1E04D48B600805987465B461E4309
:101A900000D076E000239B46994602330826009347
:101AA000CEE799464346BB4601930091009B022B2B
:101AB0006BD1019B9A46002153460122002789469B
:101AC0001A403C4B00213F030C0D24053F0B2743DC
:101AD0003B4C1B0527401F437F00D2077F0817435D
:101AE0004846391C07B03CBC90469946A246AB46D6
:101AF000F0BD03433ED05B46002B00D19CE158462D
:101B000000F080FB2823311C1B1A021C5F46D940C1
:101B1000083A97400B1C96403B439B46B146002336
:101B2000284D00262D1A00938AE7524603213A4396
:101B3000A0D10027002302219CE752463A4315D04A
:101B4000002F00D185E1381C00F05CFB021C28212D
:101B50005046891A131CC8405146083B99409F4083
:101B60000B1C074317480021801A83E70027002336
:101B700001217FE700239B46994601330426009309
:101B80005EE703230C2600935AE7032B00D13CE2C7
:101B9000012B00D0BFE11A1C019B1A400021002339
:101BA000002789468EE700238027994600223F03BD
:101BB000004B87E7FF07000001FCFFFF0023000840
:101BC000FFFF0F800DFCFFFFBB4500D951E100D1A5
:101BD0004CE14A46039200225C469046013D180EB5
:101BE0003F0238431B020193030C994603041B0C6C
:101BF0004946061C201C1F1C0093FFF7B7FB021C64
:101C00007A4302904946201C171CFFF735FC039BC2
:101C100009041B0C19438F420CD9029B8919013B03
:101C20008E4200D952E18F4200D84FE1029B8919C0
:101C3000023B0293CC1B201C4946FFF797FB009FF9
:101C4000834647434946201CFFF716FC039A0B04C2
:101C50001404240C23439F420DD95A469B19013A80
:101C60009E4200D930E19F4200D82DE1022252422B
:101C700094469B19E344029ADB1B17045A463A43E5
:101C80009346019C170C220C101C04925A46110416
:101C90002204120C141C090C7C4305924A43414354
:101CA00047436118100C09188C4203D98020400268
:101CB000844667440C0C12040804120C3C19811869
:101CC000A34200D2E5E000D1DFE01F1B43465C1ACF
:101CD000A04592415242BF1AB74200D10EE1381CD2
:101CE0004946FFF743FB009B029043434946381C9B
:101CF0009846FFF7C1FB230C0F041F43B8450CD9CE
:101D0000029BBF19013BBE4200D9FBE0B84500D899
:101D1000F8E0029BBF19023B02934346FF1A494673
:101D2000381CFFF723FB009B039043434946381CB4
:101D30009846FFF7A1FB24040904240C214388459D
:101D40000CD9039B8919013B8E4200D9DCE0884500
:101D500000D8D9E0039B8919023B03934346C91A73
:101D6000029B039A1B04059C1A43100C1304914612
:101D7000221C049F1B0C5A4344437B437843E318C3
:101D8000170CDB199C4203D980246402A4466044EA
:101D90001C0C12041B04120C00199B18814200D267
:101DA00096E000D1FCE04A4601231A4391469B4B42
:101DB000EB18002B00DC99E04A4652070AD00F22AC
:101DC00049460A40042A05D00431494592418946D2
:101DD000524293445A46D20106D55A46904B1A4075
:101DE00080239346DB00EB188E4A934200DD62E6C7
:101DF0004A465946D208490711435A46894657026E
:101E0000514601225B053F0B5B0D0A405AE68020DC
:101E10005A460003024208D0074206D107433F0357
:101E200099463F0B4246804B4CE65F4607433F03D3
:101E30003F0B221C7C4B45E600F0E4F9031C2030EC
:101E4000272800DC5EE6083B9E400023B346994607
:101E500065E6504600F0D6F9021C2032272A00DC45
:101E600075E657460838874000237BE6994500D23F
:101E7000AFE65A46594654084A46C8075208024334
:101E800003924A46D2079046A9E60027884500D328
:101E90001CE7019F5A46BC46E044B845BF417F421B
:101EA000BF19FF18013ABE4206D2BC425FD800D12A
:101EB0009FE03F1B934609E7B742FAD1019B434598
:101EC000F3D9371B934601E79346D4E60293B1E674
:101ED0004A468919013A8E4218D99146814200D06A
:101EE00061E7019A9A4200D05DE760E74F4F7F1BA0
:101EF000382F13DD012253461A404FE601235B427F
:101F0000994654E7029308E7039327E788423CD8B1
:101F100074D0914647E7019B9A4648E71F2F44DC5F
:101F2000434B4A469C465B466544FA40AB401343EC
:101F30004A46AA40151C6A1E95415A46FA402B4350
:101F4000171C5A0709D00F221A40042A05D01A1D5F
:101F50009A429B415B42FF18131C3A023ED55346FE
:101F6000012200211A40002701238946AAE5022305
:101F70005B429C46019AE3449446E04490459B4171
:101F80005B429B19DF193F1BA0E6019F4A467C007C
:101F9000BC42BF417F42BF19023AC91901949CE774
:101FA000002B95D1002201929BE75A46214B5B1BE7
:101FB000DA40202F27D0204B9C465B466544AB403F
:101FC00049460B43591E8B411343072200271A40F1
:101FD00007D00F2200271A40042AB8D17A077F02BF
:101FE0003F0BDB0813439946012253461A40002356
:101FF00068E54145BBD89346002767E6019C9C42B3
:10200000C3D391466DE70023DAE780275B463F03A1
:102010001F433F033F0B019A034B53E5FF030000AF
:10202000FFFFFFFEFE070000FF07000002FCFFFFAE
:102030001E040000E2FBFFFF3E0400004200120EFF
:10204000511C38B5C9B243025D0AC40F012915DD20
:10205000E02189008C466D071B0B62440021281C7F
:102060000D0D2D052B431C4D52052B4052081343DB
:102070005B00E4075B082343191C38BD002A15D117
:10208000002D1FD0281C00F0BDF80A281DDC0B23F2
:102090002A1C1B1ADA40131C021C153295400F4AE9
:1020A0001B03121A52051B0B520DD7E7002D06D049
:1020B00080221B0B120313436D07094ACEE7084A1F
:1020C0000023CBE700220023C8E7031C0B3B9D4005
:1020D0002B1C0025E3E7C046FFFF0F8089030000AB
:1020E000FF07000070B50B034D00440F6D0D5B0A38
:1020F00023436C1C6405C90FC200640D012C2ADD4A
:102100003B4C2C19FE2C1ADC002C35DD8001451EC1
:10211000A841DB000343520F13435A0704D00F2298
:102120001A40042A00D004338022D2041A4027D057
:102130000134FF2C03D09B015B0AE4B201E0FF24D1
:1021400000235B02E4055B0A23435B00C9075B08CD
:102150000B43181C70BD002D06D113430ED1002473
:102160005B025B0AE4B2ECE71A43E8D08020DB00B4
:1021700080040343FF24D0E717340CDA052300243E
:10218000DB08FF2CECD1002B2DD08022D20313438F
:102190005B025B0AD5E78024164824042343401BD6
:1021A0001F280DDC144CA4466544AB401C1C131CBA
:1021B000AB405D1EAB41C240234313430024ACE758
:1021C0001E1C0E4C641BE640341C20280DD00C480D
:1021D00084466544AB401D1C2A43531E9A41131C80
:1021E0002343002499E70023ABE70025F4E7C0462A
:1021F00080FCFFFF9E03000082FCFFFF7E030000C7
:10220000A2FCFFFF1C2101231B04984201D3000CF8
:1022100010391B0A984201D3000A08391B09984259
:1022200001D30009043902A2105C40187047C0466F
:10223000040302020101010100000000000000008F
:10224000E6150008AE150008CA150008A21500081A
:10225000CA1500080E150008CA150008A2150008C6
:10226000AE150008AE1500080E150008A2150008EE
:102270004C1600084C1600084C160008D015000833
:10228000AE150008AE15000896160008A015000847
:10229000961600080E15000896160008A0150008EE
:1022A000AE150008AE1500080E150008A0150008B0
:1022B0004C1600084C1600084C1600087A16000848
:1022C0003A18000832180008321800082A180008C6
:1022D0007C1700087C170008201800082A1800083E
:1022E0007C170008201800087C1700082A1800082E
:1022F0007E1700087E1700087E170008C418000823
:10230000C81B0008B61A00089C1B0008A21A000887
:102310009C1B0008A61B00089C1B0008A21A0008B2
:10232000B61A0008B61A0008A61B0008A21A000870
:10233000AC1A0008AC1A0008AC1A00080E1E0008FF
:10234000000000000102030401020304060708095B
:0400000508000000EF
:00000001FF
